:100000000C942A000C940A010C940A010C940A0125
:100010000C940A010C940A010C940A010C940A0134
:100020000C940A010C940A010C940A010C940A0124
:100030000C940A010C940A010C940A010C940A0114
:100040000C940A010C940A010C940A010C940A0104
:100050000C940A0111241FBECFE5D4E0DEBFCDBF52
:0C0060000E94B8000C943400F894FFCF0C
:10006C006230B9F018F4613031F008956330F9F072
:10007C00643059F108954BB321E030E0B90102C06E
:10008C00660F771F8A95E2F7CB01809584238BBB93
:10009C00089548B321E030E0B90102C0660F771F24
:1000AC008A95E2F7CB018095842388BB089545B3EC
:1000BC0021E030E0B90102C0660F771F8A95E2F7A4
:1000CC00CB018095842385BB089542B321E030E0B9
:1000DC00B90102C0660F771F8A95E2F7CB018095B4
:0600EC00842382BB08958D
:1000F2006230B1F018F4613031F008956330E9F004
:10010200643041F108954BB321E030E0B90102C0FF
:10011200660F771F8A95E2F7CB01842B8BBB08957C
:1001220048B321E030E0B90102C0660F771F8A951B
:10013200E2F7CB01842B88BB089545B321E030E080
:10014200B90102C0660F771F8A95E2F7CB01842BB3
:1001520085BB089542B321E030E0B90102C0660FC9
:0E016200771F8A95E2F7CB01842B82BB0895AC
:10017000BC98B8988A988B9AA29AA79A80E090E047
:100180000E94F200892B31F063E082E090E00E944F
:10019000790005C063E082E090E00E94360084E0D0
:1001A00090E00E94F200892B31F063E087E090E05C
:1001B0000E94790005C063E087E090E00E9436006D
:1001C00082E090E00E94FE00892B31F064E083E041
:1001D00090E00E947900D2CF64E083E090E00E943A
:0401E0003600CCCF4A
:1001E40026B330E0A90102C0559547958A95E2F7F8
:0801F400CA01817099270895EA
:1001FC0020B330E0A90102C0559547958A95E2F7E6
:08020C00CA01817099270895D1
:040214000C94000046
:00000001FF
